:100000000EC015C014C013C012C011C010C00FC064
:100010000EC00DC00CC00BC00AC009C008C011241E
:100020001FBECFE5D1E0DEBFCDBF66D0C8C0E8CFF0
:1000300083EC8ABD12BE8FE689BD08951ABC88B3D1
:1000400088BB089587B3837E87BB88B38C6188BBE8
:10005000089587B3836087BBC19A0895CF93DF93D8
:10006000D82FC8E0C198E4DF87E295E00197F1F767
:1000700000C00000C19AE2DFDD233CF487E59CE08C
:100080000197F1F700C0000006C087E993E00197EF
:10009000F1F700C00000DD0FC15021F7DF91CF91D3
:1000A0000895CF93DF93D82FC62FC198C1DF8FE477
:1000B00096E40197F1F700C00000C19ABFDF8FE519
:1000C00092E20197F1F700C000008D2FC7DF8D2F5E
:1000D0008095C4DF8C2FC2DF8C2F8095BFDFC19845
:1000E000A7DF87E295E00197F1F700C00000C19A11
:1000F000A5DFDF91CF910895A5DFABDFB29B1EC0D6
:10010000B29B08C08FE39CE90197F1F700C00000A3
:10011000B299F8CF8FE39CE90197F1F700C0000096
:1001200068E880E8BEDF85B7877E806185BF85B7D8
:10013000806285BF889585B78F7D85BFB39B1EC0C4
:10014000B39B08C08FE39CE90197F1F700C0000062
:10015000B399F8CF8FE39CE90197F1F700C0000055
:1001600060E480E89EDF85B7877E806185BF85B7C4
:10017000806285BF889585B78F7D85BFB49BBECFD4
:10018000B49B08C08FE39CE90197F1F700C0000021
:10019000B499F8CF8FE39CE90197F1F700C0000014
:1001A00060E280E87EDF85B7877E806185BF85B7A6
:1001B000806285BF889585B78F7D85BF9FCFF89476
:0201C000FFCF6F
:00000001FF
